{
    "contractName": "VerifyUniswapV2ERC20",
    "abi": [
        {
            "inputs": [],
            "payable": false,
            "stateMutability": "nonpayable",
            "type": "constructor"
        },
        {
            "anonymous": false,
            "inputs": [
                {
                    "indexed": true,
                    "internalType": "address",
                    "name": "owner",
                    "type": "address"
                },
                {
                    "indexed": true,
                    "internalType": "address",
                    "name": "spender",
                    "type": "address"
                },
                {
                    "indexed": false,
                    "internalType": "uint256",
                    "name": "value",
                    "type": "uint256"
                }
            ],
            "name": "Approval",
            "type": "event"
        },
        {
            "anonymous": false,
            "inputs": [
                {
                    "indexed": false,
                    "internalType": "string",
                    "name": "message",
                    "type": "string"
                }
            ],
            "name": "AssertionFailed",
            "type": "event"
        },
        {
            "anonymous": false,
            "inputs": [
                {
                    "indexed": true,
                    "internalType": "address",
                    "name": "from",
                    "type": "address"
                },
                {
                    "indexed": true,
                    "internalType": "address",
                    "name": "to",
                    "type": "address"
                },
                {
                    "indexed": false,
                    "internalType": "uint256",
                    "name": "value",
                    "type": "uint256"
                }
            ],
            "name": "Transfer",
            "type": "event"
        },
        {
            "constant": true,
            "inputs": [],
            "name": "DOMAIN_SEPARATOR",
            "outputs": [
                {
                    "internalType": "bytes32",
                    "name": "",
                    "type": "bytes32"
                }
            ],
            "payable": false,
            "stateMutability": "view",
            "type": "function"
        },
        {
            "constant": true,
            "inputs": [],
            "name": "PERMIT_TYPEHASH",
            "outputs": [
                {
                    "internalType": "bytes32",
                    "name": "",
                    "type": "bytes32"
                }
            ],
            "payable": false,
            "stateMutability": "view",
            "type": "function"
        },
        {
            "constant": true,
            "inputs": [],
            "name": "_MYTHX_ACCOUNT_0",
            "outputs": [
                {
                    "internalType": "address",
                    "name": "",
                    "type": "address"
                }
            ],
            "payable": false,
            "stateMutability": "view",
            "type": "function"
        },
        {
            "constant": true,
            "inputs": [],
            "name": "_MYTHX_ACCOUNT_1",
            "outputs": [
                {
                    "internalType": "address",
                    "name": "",
                    "type": "address"
                }
            ],
            "payable": false,
            "stateMutability": "view",
            "type": "function"
        },
        {
            "constant": true,
            "inputs": [],
            "name": "_MYTHX_ACCOUNT_2",
            "outputs": [
                {
                    "internalType": "address",
                    "name": "",
                    "type": "address"
                }
            ],
            "payable": false,
            "stateMutability": "view",
            "type": "function"
        },
        {
            "constant": true,
            "inputs": [],
            "name": "_MYTHX_ACCOUNT_3",
            "outputs": [
                {
                    "internalType": "address",
                    "name": "",
                    "type": "address"
                }
            ],
            "payable": false,
            "stateMutability": "view",
            "type": "function"
        },
        {
            "constant": true,
            "inputs": [],
            "name": "_MYTHX_ACCOUNT_4",
            "outputs": [
                {
                    "internalType": "address",
                    "name": "",
                    "type": "address"
                }
            ],
            "payable": false,
            "stateMutability": "view",
            "type": "function"
        },
        {
            "constant": true,
            "inputs": [],
            "name": "_MYTHX_ACCOUNT_5",
            "outputs": [
                {
                    "internalType": "address",
                    "name": "",
                    "type": "address"
                }
            ],
            "payable": false,
            "stateMutability": "view",
            "type": "function"
        },
        {
            "constant": true,
            "inputs": [],
            "name": "_MYTHX_ACCOUNT_6",
            "outputs": [
                {
                    "internalType": "address",
                    "name": "",
                    "type": "address"
                }
            ],
            "payable": false,
            "stateMutability": "view",
            "type": "function"
        },
        {
            "constant": true,
            "inputs": [],
            "name": "_MYTHX_ATTACKER",
            "outputs": [
                {
                    "internalType": "address",
                    "name": "",
                    "type": "address"
                }
            ],
            "payable": false,
            "stateMutability": "view",
            "type": "function"
        },
        {
            "constant": true,
            "inputs": [],
            "name": "_MYTHX_CREATOR",
            "outputs": [
                {
                    "internalType": "address",
                    "name": "",
                    "type": "address"
                }
            ],
            "payable": false,
            "stateMutability": "view",
            "type": "function"
        },
        {
            "constant": true,
            "inputs": [],
            "name": "___mythx_var_const_totalSupply",
            "outputs": [
                {
                    "internalType": "uint256",
                    "name": "",
                    "type": "uint256"
                }
            ],
            "payable": false,
            "stateMutability": "view",
            "type": "function"
        },
        {
            "constant": true,
            "inputs": [
                {
                    "internalType": "address",
                    "name": "",
                    "type": "address"
                },
                {
                    "internalType": "address",
                    "name": "",
                    "type": "address"
                }
            ],
            "name": "allowance",
            "outputs": [
                {
                    "internalType": "uint256",
                    "name": "",
                    "type": "uint256"
                }
            ],
            "payable": false,
            "stateMutability": "view",
            "type": "function"
        },
        {
            "constant": false,
            "inputs": [
                {
                    "internalType": "address",
                    "name": "spender",
                    "type": "address"
                },
                {
                    "internalType": "uint256",
                    "name": "amount",
                    "type": "uint256"
                }
            ],
            "name": "approve",
            "outputs": [
                {
                    "internalType": "bool",
                    "name": "",
                    "type": "bool"
                }
            ],
            "payable": false,
            "stateMutability": "nonpayable",
            "type": "function"
        },
        {
            "constant": true,
            "inputs": [
                {
                    "internalType": "address",
                    "name": "",
                    "type": "address"
                }
            ],
            "name": "balanceOf",
            "outputs": [
                {
                    "internalType": "uint256",
                    "name": "",
                    "type": "uint256"
                }
            ],
            "payable": false,
            "stateMutability": "view",
            "type": "function"
        },
        {
            "constant": true,
            "inputs": [],
            "name": "decimals",
            "outputs": [
                {
                    "internalType": "uint8",
                    "name": "",
                    "type": "uint8"
                }
            ],
            "payable": false,
            "stateMutability": "view",
            "type": "function"
        },
        {
            "constant": true,
            "inputs": [],
            "name": "name",
            "outputs": [
                {
                    "internalType": "string",
                    "name": "",
                    "type": "string"
                }
            ],
            "payable": false,
            "stateMutability": "view",
            "type": "function"
        },
        {
            "constant": true,
            "inputs": [
                {
                    "internalType": "address",
                    "name": "",
                    "type": "address"
                }
            ],
            "name": "nonces",
            "outputs": [
                {
                    "internalType": "uint256",
                    "name": "",
                    "type": "uint256"
                }
            ],
            "payable": false,
            "stateMutability": "view",
            "type": "function"
        },
        {
            "constant": false,
            "inputs": [
                {
                    "internalType": "address",
                    "name": "owner",
                    "type": "address"
                },
                {
                    "internalType": "address",
                    "name": "spender",
                    "type": "address"
                },
                {
                    "internalType": "uint256",
                    "name": "value",
                    "type": "uint256"
                },
                {
                    "internalType": "uint256",
                    "name": "deadline",
                    "type": "uint256"
                },
                {
                    "internalType": "uint8",
                    "name": "v",
                    "type": "uint8"
                },
                {
                    "internalType": "bytes32",
                    "name": "r",
                    "type": "bytes32"
                },
                {
                    "internalType": "bytes32",
                    "name": "s",
                    "type": "bytes32"
                }
            ],
            "name": "permit",
            "outputs": [],
            "payable": false,
            "stateMutability": "nonpayable",
            "type": "function"
        },
        {
            "constant": true,
            "inputs": [],
            "name": "symbol",
            "outputs": [
                {
                    "internalType": "string",
                    "name": "",
                    "type": "string"
                }
            ],
            "payable": false,
            "stateMutability": "view",
            "type": "function"
        },
        {
            "constant": true,
            "inputs": [],
            "name": "totalSupply",
            "outputs": [
                {
                    "internalType": "uint256",
                    "name": "",
                    "type": "uint256"
                }
            ],
            "payable": false,
            "stateMutability": "view",
            "type": "function"
        },
        {
            "constant": false,
            "inputs": [
                {
                    "internalType": "address",
                    "name": "to",
                    "type": "address"
                },
                {
                    "internalType": "uint256",
                    "name": "value",
                    "type": "uint256"
                }
            ],
            "name": "transfer",
            "outputs": [
                {
                    "internalType": "bool",
                    "name": "",
                    "type": "bool"
                }
            ],
            "payable": false,
            "stateMutability": "nonpayable",
            "type": "function"
        },
        {
            "constant": false,
            "inputs": [
                {
                    "internalType": "address",
                    "name": "sender",
                    "type": "address"
                },
                {
                    "internalType": "address",
                    "name": "recipient",
                    "type": "address"
                },
                {
                    "internalType": "uint256",
                    "name": "amount",
                    "type": "uint256"
                }
            ],
            "name": "transferFrom",
            "outputs": [
                {
                    "internalType": "bool",
                    "name": "",
                    "type": "bool"
                }
            ],
            "payable": false,
            "stateMutability": "nonpayable",
            "type": "function"
        }
    ],
    "bytecode": "608060405260006005553480156200001657600080fd5b506040514690806052620025498239604080519182900360520182208282018252600a8352692ab734b9bbb0b8102b1960b11b6020938401528151808301835260018152603160f81b908401528151808401919091527fbfcc8ef98ffbf7b6c3fec7bf5185b566b9863e35a9d83acd49ad6824b5969738818301527fc89efdaa54c0f20c7adf612882df0950f5a951637e0307cdcb4c672f298b8bc6606082015260808101949094523060a0808601919091528151808603909101815260c09094019052825192019190912060035550620000f96001600160e01b03620000ff16565b62000292565b62000113306001600160e01b036200018a16565b60408051808201909152600a808252692ab734b9bbb0b8102b1960b11b6020909201918252620001449181620001ed565b50604080518082019091526006808252652aa72496ab1960d11b60209092019182526200017491600b91620001ed565b506009805460ff19166012179055600054600c55565b600d54600410156200019b57600080fd5b600d80546001810182556000919091527fd7b6990105719101dabeb77144f2a3385c8033acd3af97e9423a695e81ad1eb50180546001600160a01b0319166001600160a01b0392909216919091179055565b828054600181600116156101000203166002900490600052602060002090601f016020900481019282601f106200023057805160ff191683800117855562000260565b8280016001018555821562000260579182015b828111156200026057825182559160200191906001019062000243565b506200026e92915062000272565b5090565b6200028f91905b808211156200026e576000815560010162000279565b90565b6122a780620002a26000396000f3fe608060405234801561001057600080fd5b506004361061014d5760003560e01c806370a08231116100c3578063b65870c51161007c578063b65870c514610359578063c152297114610361578063cd47cad514610369578063d505accf14610371578063dd62ed3e146103c4578063ec73891a146103f25761014d565b806370a08231146102c95780637ecebe00146102ef57806395d89b4114610315578063a3065ced1461031d578063a846494014610325578063a9059cbb1461032d5761014d565b8063313ce56711610115578063313ce567146102675780633644e515146102855780634d4d66551461028d5780634da219d0146102b15780635c165086146102b957806360e3b69f146102c15761014d565b806306fdde0314610152578063095ea7b3146101cf57806318160ddd1461020f57806323b872dd1461022957806330adf81f1461025f575b600080fd5b61015a6103fa565b6040805160208082528351818301528351919283929083019185019080838360005b8381101561019457818101518382015260200161017c565b50505050905090810190601f1680156101c15780820380516001836020036101000a031916815260200191505b509250505060405180910390f35b6101fb600480360360408110156101e557600080fd5b506001600160a01b038135169060200135610420565b604080519115158252519081900360200190f35b61021761051e565b60408051918252519081900360200190f35b6101fb6004803603606081101561023f57600080fd5b506001600160a01b03813581169160208101359091169060400135610524565b610217610ac1565b61026f610ae5565b6040805160ff9092168252519081900360200190f35b610217610aea565b610295610af0565b604080516001600160a01b039092168252519081900360200190f35b610295610b08565b610295610b20565b610295610b38565b610217600480360360208110156102df57600080fd5b50356001600160a01b0316610b50565b6102176004803603602081101561030557600080fd5b50356001600160a01b0316610b62565b61015a610b74565b610295610b96565b610295610bae565b6101fb6004803603604081101561034357600080fd5b506001600160a01b038135169060200135610bc6565b610217611042565b610295611048565b610295611060565b6103c2600480360360e081101561038757600080fd5b506001600160a01b03813581169160208101359091169060408101359060608101359060ff6080820135169060a08101359060c00135611078565b005b610217600480360360408110156103da57600080fd5b506001600160a01b038135811691602001351661127a565b610295611297565b6040518060400160405280600a8152602001692ab734b9bbb0b8102b1960b11b81525081565b600061042a6112af565b6104326112ba565b1561043f5761043f6112c3565b600061044b8484611306565b90506001600160a01b0384166104955760008051602061213a83398151915260405180806020018281038252603a8152602001806120a9603a913960400191505060405180910390a15b3360009081526002602090815260408083206001600160a01b038816845290915290205483146104f95760008051602061213a83398151915260405180806020018281038252602a8152602001806121c0602a913960400191505060405180910390a15b90506105036112ba565b156105105761051061131c565b6105186116aa565b92915050565b60005481565b600061052e6112af565b6105366112ba565b15610543576105436112c3565b61054c846116b6565b610555836116b6565b6001600160a01b038085166000818152600260209081526040808320948816808452948252808320549383526001909152808220549382528120549192919061059f888888611706565b90506001600160a01b0388166105e95760008051602061213a83398151915260405180806020018281038252603f8152602001806121ea603f913960400191505060405180910390a15b6001600160a01b0387166106315760008051602061213a833981519152604051808060200182810382526041815260200180611dde6041913960600191505060405180910390a15b600080546001600160a01b038a1682526001602052604090912054118015906106735750600080546001600160a01b0389168252600160205260409091205411155b6106b15760008051602061213a833981519152604051808060200182810382526027815260200180611b526027913960400191505060405180910390a15b858410156106f35760008051602061213a833981519152604051808060200182810382526040815260200180611c996040913960400191505060405180910390a15b6001600160a01b038089166000908152600260209081526040808320938b16835292905220548685031461075b5760008051602061213a833981519152604051808060200182810382526039815260200180611b796039913960400191505060405180910390a15b6001600160a01b0387811660009081526001602052604080822054928b16825290205401828401146107c15760008051602061213a83398151915260405180806020018281038252603581526020018061218b6035913960400191505060405180910390a15b858310156108035760008051602061213a833981519152604051808060200182810382526040815260200180611c996040913960400191505060405180910390a15b6001600160a01b0388166000908152600160205260409020548314158061084257506001600160a01b0387166000908152600160205260409020548214155b15610a9957806108865760008051602061213a83398151915260405180806020018281038252603181526020018061215a6031913960400191505060405180910390a15b600086116108c85760008051602061213a83398151915260405180806020018281038252602e81526020018061203d602e913960400191505060405180910390a15b6001600160a01b038089166000908152600260209081526040808320938b1683529290522054841161092e5760008051602061213a83398151915260405180806020018281038252603d815260200180611bb2603d913960400191505060405180910390a15b6001600160a01b03871660009081526001602052604090205482106109875760008051602061213a8339815191526040518080602001828103825260218152602001806120e36021913960400191505060405180910390a15b6001600160a01b038716600090815260016020526040902054828701146109e25760008051602061213a8339815191526040518080602001828103825260368152602001806121046036913960400191505060405180910390a15b336000908152600160205260409020548311610a4757604080516020808252601f908201527f73656e6465722062616c616e636520646964206e6f742064656372656173650081830152905160008051602061213a8339815191529181900360600190a15b3360009081526001602052604090205486840314610a995760008051602061213a833981519152604051808060200182810382526034815260200180611bef6034913960400191505060405180910390a15b50505050610aa56112ba565b15610ab257610ab261131c565b610aba6116aa565b9392505050565b7f6e71edae12b1b97f4d1f60370fef10105fa2faae0126114a169c64845d6126c981565b601281565b60035481565b73deadbeefdeadbeefdeadbeefdeadbeefdeadbeef81565b73aaaaaaaaaaaaaaaaaaaaaaaaaaaaaaaaaaaaaaa581565b73aaaaaaaaaaaaaaaaaaaaaaaaaaaaaaaaaaaaaaa481565b73aaaaaaaaaaaaaaaaaaaaaaaaaaaaaaaaaaaaaaa681565b60016020526000908152604090205481565b60046020526000908152604090205481565b604051806040016040528060068152602001652aa72496ab1960d11b81525081565b73aaaaaaaaaaaaaaaaaaaaaaaaaaaaaaaaaaaaaaa181565b73aaaaaaaaaaaaaaaaaaaaaaaaaaaaaaaaaaaaaaa081565b6000610bd06112af565b610bd86112ba565b15610be557610be56112c3565b33600090815260016020526040808220546001600160a01b0386168352908220549091610c1286866117a0565b90506001600160a01b038616610c5c5760008051602061213a833981519152604051808060200182810382526036815260200180611e946036913960400191505060405180910390a15b82851115610c9e5760008051602061213a83398151915260405180806020018281038252603e81526020018061206b603e913960400191505060405180910390a15b60008054338252600160205260409091205411801590610cd75750600080546001600160a01b0388168252600160205260409091205411155b610d155760008051602061213a833981519152604051808060200182810382526027815260200180611b526027913960400191505060405180910390a15b6001600160a01b038616600090815260016020526040808220543383529120540182840114610d785760008051602061213a83398151915260405180806020018281038252603581526020018061218b6035913960400191505060405180910390a15b808015610d855750600085115b15610dfd5733600090815260016020526040902054831480610dbe57506001600160a01b03861660009081526001602052604090205482145b15610dfd5760008051602061213a83398151915260405180806020018281038252604a815260200180612229604a913960600191505060405180910390a15b3360009081526001602052604090205483141580610e3357506001600160a01b0386166000908152600160205260409020548214155b156110245780610e775760008051602061213a83398151915260405180806020018281038252602d815260200180611cd9602d913960400191505060405180910390a15b60008511610eb95760008051602061213a83398151915260405180806020018281038252602e81526020018061203d602e913960400191505060405180910390a15b6001600160a01b0386166000908152600160205260409020548210610f125760008051602061213a8339815191526040518080602001828103825260218152602001806120e36021913960400191505060405180910390a15b6001600160a01b03861660009081526001602052604090205482860114610f6d5760008051602061213a8339815191526040518080602001828103825260368152602001806121046036913960400191505060405180910390a15b336000908152600160205260409020548311610fd257604080516020808252601f908201527f73656e6465722062616c616e636520646964206e6f742064656372656173650081830152905160008051602061213a8339815191529181900360600190a15b33600090815260016020526040902054858403146110245760008051602061213a833981519152604051808060200182810382526034815260200180611bef6034913960400191505060405180910390a15b61102d866116b6565b611036336116b6565b925050506105036112ba565b600c5481565b73aaaaaaaaaaaaaaaaaaaaaaaaaaaaaaaaaaaaaaa281565b73affeaffeaffeaffeaffeaffeaffeaffeaffeaffe81565b428410156110c2576040805162461bcd60e51b8152602060048201526012602482015271155b9a5cddd85c158c8e881156141254915160721b604482015290519081900360640190fd5b6003546001600160a01b0380891660008181526004602090815260408083208054600180820190925582517f6e71edae12b1b97f4d1f60370fef10105fa2faae0126114a169c64845d6126c98186015280840196909652958d166060860152608085018c905260a085019590955260c08085018b90528151808603909101815260e08501825280519083012061190160f01b6101008601526101028501969096526101228085019690965280518085039096018652610142840180825286519683019690962095839052610162840180825286905260ff89166101828501526101a284018890526101c28401879052519193926101e280820193601f1981019281900390910190855afa1580156111dd573d6000803e3d6000fd5b5050604051601f1901519150506001600160a01b038116158015906112135750886001600160a01b0316816001600160a01b0316145b611264576040805162461bcd60e51b815260206004820152601c60248201527f556e697377617056323a20494e56414c49445f5349474e415455524500000000604482015290519081900360640190fd5b61126f8989896117ad565b505050505050505050565b600260209081526000928352604080842090915290825290205481565b73aaaaaaaaaaaaaaaaaaaaaaaaaaaaaaaaaaaaaaa381565b600580546001019055565b60055460011490565b33600090815260016020526040808220546006557e443dd3934fdec7d7ee04c0dfdd9c20af899ec0f8614322f2b207dbc240408054600755308252902054600855565b60006113133384846117ad565b50600192915050565b60095460ff166012146113635760008051602061213a833981519152604051808060200182810382526072815260200180611f626072913960800191505060405180910390a15b604080518082018252600a808252692ab734b9bbb0b8102b1960b11b60208084019190915281548451601f6002600019610100600186161502019093169290920491820183900483028101830190955280855261141794929183018282801561140d5780601f106113e25761010080835404028352916020019161140d565b820191906000526020600020905b8154815290600101906020018083116113f057829003601f168201915b505050505061180f565b6114555760008051602061213a83398151915260405180806020018281038252606a815260200180611d06606a913960800191505060405180910390a15b60408051808201825260068152652aa72496ab1960d11b602080830191909152600b80548451601f600260001961010060018616150201909316929092049182018490048402810184019095528085526114d0949283018282801561140d5780601f106113e25761010080835404028352916020019161140d565b61150e5760008051602061213a83398151915260405180806020018281038252606e815260200180611d70606e913960800191505060405180910390a15b600c54600054146115535760008051602061213a833981519152604051808060200182810382526069815260200180611fd46069913960800191505060405180910390a15b61155b6118f6565b6000541461159d5760008051602061213a833981519152604051808060200182810382526075815260200180611e1f6075913960800191505060405180910390a15b6000805260016020527fa6eef7e35abe7026729641147f7915573c7e97b47efa546f5f6e3230263bcb4954156116075760008051602061213a833981519152604051808060200182810382526076815260200180611c236076913960800191505060405180910390a15b60075473aaaaaaaaaaaaaaaaaaaaaaaaaaaaaaaaaaaaaaa060005260016020527e443dd3934fdec7d7ee04c0dfdd9c20af899ec0f8614322f2b207dbc24040805410801561166957503373aaaaaaaaaaaaaaaaaaaaaaaaaaaaaaaaaaaaaaa014155b156116a85760008051602061213a833981519152604051808060200182810382526075815260200180611eca6075913960800191505060405180910390a15b565b60058054600019019055565b6001600160a01b0381166000908152600e602052604090205460ff16611703576116df81611996565b6001600160a01b0381166000908152600e60205260409020805460ff191660011790555b50565b6001600160a01b03831660009081526002602090815260408083203384529091528120546000191461178b576001600160a01b0384166000908152600260209081526040808320338452909152902054611766908363ffffffff6119f816565b6001600160a01b03851660009081526002602090815260408083203384529091529020555b611796848484611a48565b5060019392505050565b6000611313338484611a48565b6001600160a01b03808416600081815260026020908152604080832094871680845294825291829020859055815185815291517f8c5be1e5ebec7d5bd14f71427d1e84f3dd0314c0f7b2291e5b200ac8c7c3b9259281900390910190a3505050565b6000816040516020018082805190602001908083835b602083106118445780518252601f199092019160209182019101611825565b6001836020036101000a03801982511681845116808217855250505050505090500191505060405160208183030381529060405280519060200120836040516020018082805190602001908083835b602083106118b25780518252601f199092019160209182019101611893565b6001836020036101000a0380198251168184511680821785525050505050509050019150506040516020818303038152906040528051906020012014905092915050565b600080805b600d5481101561199057600060016000600d848154811061191857fe5b60009182526020808320909101546001600160a01b0316835282019290925260400190205490508281018311156119835760008051602061213a833981519152604051808060200182810382526023815260200180611f3f6023913960400191505060405180910390a15b91909101906001016118fb565b50905090565b600d54600410156119a657600080fd5b600d80546001810182556000919091527fd7b6990105719101dabeb77144f2a3385c8033acd3af97e9423a695e81ad1eb50180546001600160a01b0319166001600160a01b0392909216919091179055565b80820382811115610518576040805162461bcd60e51b815260206004820152601560248201527464732d6d6174682d7375622d756e646572666c6f7760581b604482015290519081900360640190fd5b6001600160a01b038316600090815260016020526040902054611a71908263ffffffff6119f816565b6001600160a01b038085166000908152600160205260408082209390935590841681522054611aa6908263ffffffff611b0216565b6001600160a01b0380841660008181526001602090815260409182902094909455805185815290519193928716927fddf252ad1be2c89b69c2b068fc378daa952ba7f163c4a11628f55a4df523b3ef92918290030190a3505050565b80820182811015610518576040805162461bcd60e51b815260206004820152601460248201527364732d6d6174682d6164642d6f766572666c6f7760601b604482015290519081900360640190fdfe62616c616e63654f662866726f6d207c7c20746f29206973203c3d20746f74616c537570706c797472616e7366657246726f6d2829202d206f6c6428616c6c6f77616e636529202d20616d6f756e74203d3d206e657720616c6c6f77616e63657472616e7366657246726f6d2829202d20616c6c6f77616e63652073686f756c64206265206c6f77657220666f6c6c6f77696e67207472616e7366657273656e6465722062616c616e636520646964206e6f742064656372656173652062792076616c7565207472616e73666572726564436f6e74726163742d7769646520696e76617269616e7420656e7375726573207b696e76617269616e742062616c616e63654f66286164647265737328302929203d3d20307d20696e20636f6e7472616374204d797468584552433230566572696669636174696f6e207761732076696f6c617465647472616e7366657246726f6d2829202d2073686f756c6420726169736520616e20657863657074696f6e20696620616c6c6f77616e6365203c20616d6f756e74746f6b656e73207472616e7366657272656420627574207472616e736665722072657475726e732066616c7365436f6e74726163742d7769646520696e76617269616e7420656e7375726573207b5f6e616d65203d3d2070726576696f7573285f6e616d65297d20696e20636f6e7472616374204d797468584552433230566572696669636174696f6e207761732076696f6c61746564436f6e74726163742d7769646520696e76617269616e7420656e7375726573207b5f73796d626f6c203d3d2070726576696f7573285f73796d626f6c297d20696e20636f6e7472616374204d797468584552433230566572696669636174696f6e207761732076696f6c617465647472616e7366657246726f6d28726563697069656e743d616464726573732830292c202e2e2e292073686f756c6420726169736520616e20657863657074696f6e436f6e74726163742d7769646520696e76617269616e7420656e7375726573207b746f74616c537570706c79206d6174636865732073756d206f662062616c616e6365737d20696e20636f6e7472616374204d797468584552433230566572696669636174696f6e207761732076696f6c617465647472616e7366657228746f3d616464726573732830292c202e2e2e292073686f756c6420726169736520616e20657863657074696f6e436f6e74726163742d7769646520696e76617269616e7420656e7375726573207b6f6e6c7920757365722063616e206c6f77657220697473206f776e2062616c616e63657d20696e20636f6e7472616374204d797468584552433230566572696669636174696f6e207761732076696f6c6174656453756d206f662062616c616e6365732065786365656473204d41585f55494e54323536436f6e74726163742d7769646520696e76617269616e7420656e7375726573207b5f646563696d616c73203d3d2070726576696f7573285f646563696d616c73297d20696e20636f6e7472616374204d797468584552433230566572696669636174696f6e207761732076696f6c61746564436f6e74726163742d7769646520696e76617269616e7420656e7375726573207b746f74616c537570706c7920697320636f6e7374616e747d20696e20636f6e7472616374204d797468584552433230566572696669636174696f6e207761732076696f6c617465647a65726f2076616c7565207472616e736665722073686f756c64206e6f74206d6f646966792062616c616e6365737472616e736665722073686f756c6420726169736520616e20657863657074696f6e20696620616d6f756e74203e2062616c616e63654f662866726f6d29617070726f7665287370656e6465723d616464726573732830292c202e2e2e292073686f756c6420726169736520616e20657863657074696f6e72656365697665722062616c616e636520646964206e6f7420696e63726561736572656365697665722062616c616e636520646964206e6f7420696e6372656173652062792076616c7565207472616e73666572726564b42604cb105a16c8f6db8a41e6b00c0c1b4826465e8bc504b3eb3e88b3e6a4a0746f6b656e73207472616e7366657272656420627574207472616e7366657246726f6d2072657475726e732066616c736573756d206f662062616c616e636573206f662073656e64657220616e6420726563656976657220737461797320636f6e7374616e74617070726f7665282920616c6c6f77616e636520697320636f72726563746c79206163636f756e7465647472616e7366657246726f6d287370656e6465723d616464726573732830292c202e2e2e292073686f756c6420726169736520616e20657863657074696f6e6e6f6e2d7a65726f20746f6b656e207472616e736665722072657475726e656420747275652062757420746f6b656e207472616e7366657220776173206e6f7420636f6d706c65746564a265627a7a72315820ab0f192a3918421c9f32aa6129237399beddb0f3725391f7b9e521f0066c4fb664736f6c63430005100032454950373132446f6d61696e28737472696e67206e616d652c737472696e672076657273696f6e2c75696e7432353620636861696e49642c6164647265737320766572696679696e67436f6e747261637429",
    "sourcePath": "/Users/bernhardmueller/Projects/uniswap-v2-core/contracts/VerifyUniswapV2ERC20.sol",
    "compiler": {
        "name": "solc",
        "version": "0.5.16+commit.9c3226ce"
    },
    "functionHashes": {
        "DOMAIN_SEPARATOR()": "3644e515",
        "PERMIT_TYPEHASH()": "30adf81f",
        "_MYTHX_ACCOUNT_0()": "a8464940",
        "_MYTHX_ACCOUNT_1()": "a3065ced",
        "_MYTHX_ACCOUNT_2()": "c1522971",
        "_MYTHX_ACCOUNT_3()": "ec73891a",
        "_MYTHX_ACCOUNT_4()": "5c165086",
        "_MYTHX_ACCOUNT_5()": "4da219d0",
        "_MYTHX_ACCOUNT_6()": "60e3b69f",
        "_MYTHX_ATTACKER()": "4d4d6655",
        "_MYTHX_CREATOR()": "cd47cad5",
        "___mythx_var_const_totalSupply()": "b65870c5",
        "allowance(address,address)": "dd62ed3e",
        "approve(address,uint256)": "095ea7b3",
        "balanceOf(address)": "70a08231",
        "decimals()": "313ce567",
        "name()": "06fdde03",
        "nonces(address)": "7ecebe00",
        "permit(address,address,uint256,uint256,uint8,bytes32,bytes32)": "d505accf",
        "symbol()": "95d89b41",
        "totalSupply()": "18160ddd",
        "transfer(address,uint256)": "a9059cbb",
        "transferFrom(address,address,uint256)": "23b872dd"
    },
    "gasEstimates": {
        "creation": {
            "codeDepositCost": "1774200",
            "executionCost": "infinite",
            "totalCost": "infinite"
        },
        "external": {
            "DOMAIN_SEPARATOR()": "1043",
            "PERMIT_TYPEHASH()": "310",
            "_MYTHX_ACCOUNT_0()": "330",
            "_MYTHX_ACCOUNT_1()": "308",
            "_MYTHX_ACCOUNT_2()": "263",
            "_MYTHX_ACCOUNT_3()": "351",
            "_MYTHX_ACCOUNT_4()": "330",
            "_MYTHX_ACCOUNT_5()": "308",
            "_MYTHX_ACCOUNT_6()": "352",
            "_MYTHX_ATTACKER()": "286",
            "_MYTHX_CREATOR()": "285",
            "___mythx_var_const_totalSupply()": "1020",
            "allowance(address,address)": "1327",
            "approve(address,uint256)": "infinite",
            "balanceOf(address)": "1147",
            "decimals()": "230",
            "name()": "infinite",
            "nonces(address)": "1169",
            "permit(address,address,uint256,uint256,uint8,bytes32,bytes32)": "infinite",
            "symbol()": "infinite",
            "totalSupply()": "1066",
            "transfer(address,uint256)": "infinite",
            "transferFrom(address,address,uint256)": "infinite"
        },
        "internal": {
            "_mythx_ContractInvariant_check()": "infinite",
            "_mythx_ContractInvariant_snapshot()": "62554",
            "_mythx_init()": "infinite",
            "addActor(address)": "42543",
            "addActorIfNew(address)": "64396",
            "sumBalances()": "infinite"
        }
    }
}